{
  "contractName": "Minter",
  "abi": [
    {
      "anonymous": false,
      "inputs": [
        {
          "indexed": false,
          "internalType": "string",
          "name": "name",
          "type": "string"
        },
        {
          "indexed": false,
          "internalType": "string",
          "name": "tokenURI",
          "type": "string"
        },
        {
          "indexed": false,
          "internalType": "address",
          "name": "contractAddress",
          "type": "address"
        }
      ],
      "name": "NFTCreated",
      "type": "event"
    },
    {
      "inputs": [
        {
          "internalType": "string",
          "name": "name_",
          "type": "string"
        },
        {
          "internalType": "string",
          "name": "symbol_",
          "type": "string"
        },
        {
          "internalType": "string",
          "name": "tokenURI_",
          "type": "string"
        }
      ],
      "name": "mintNFT",
      "outputs": [
        {
          "internalType": "address",
          "name": "",
          "type": "address"
        }
      ],
      "stateMutability": "nonpayable",
      "type": "function"
    },
    {
      "inputs": [
        {
          "internalType": "string",
          "name": "tokenURI_",
          "type": "string"
        },
        {
          "internalType": "address",
          "name": "nftAddress_",
          "type": "address"
        }
      ],
      "name": "addCollectibleToMintedNFT",
      "outputs": [],
      "stateMutability": "nonpayable",
      "type": "function"
    },
    {
      "inputs": [
        {
          "internalType": "uint256",
          "name": "tokenId_",
          "type": "uint256"
        },
        {
          "internalType": "address",
          "name": "nftAddress_",
          "type": "address"
        }
      ],
      "name": "getCollectible",
      "outputs": [
        {
          "internalType": "string",
          "name": "",
          "type": "string"
        }
      ],
      "stateMutability": "view",
      "type": "function"
    }
  ],
  "bytecode": "0x608060405234801561001057600080fd5b50613c5e806100206000396000f3fe60806040523480156200001157600080fd5b5060043610620000465760003560e01c80630c3b7b72146200004b5780633a85faee1462000081578063fce330a214620000a1575b600080fd5b620000696004803603810190620000639190620004cf565b620000d7565b60405162000078919062000664565b60405180910390f35b6200009f600480360381019062000099919062000469565b6200016f565b005b620000bf6004803603810190620000b99190620005ba565b62000180565b604051620000ce919062000681565b60405180910390f35b6000808484604051620000ea90620002c9565b620000f7929190620006d9565b604051809103906000f08015801562000114573d6000803e3d6000fd5b5090506000819050620001298482336200022a565b7fb0bfb6466f878eb45c00046337cbe7340d268085c6cfbd93d14a3e5f68bff90a8685836040516200015e9392919062000714565b60405180910390a150509392505050565b6200017c8282336200022a565b5050565b6060600082905060008173ffffffffffffffffffffffffffffffffffffffff166372d99675866040518263ffffffff1660e01b8152600401620001c491906200075f565b60006040518083038186803b158015620001dd57600080fd5b505afa158015620001f2573d6000803e3d6000fd5b505050506040513d6000823e3d601f19601f820116820180604052508101906200021d919062000418565b9050809250505092915050565b60008290508073ffffffffffffffffffffffffffffffffffffffff16631a5dc99d85846040518363ffffffff1660e01b81526004016200026c929190620006a5565b602060405180830381600087803b1580156200028757600080fd5b505af11580156200029c573d6000803e3d6000fd5b505050506040513d601f19601f82011682018060405250810190620002c2919062000588565b5050505050565b6132f0806200093983390190565b6000620002ee620002e884620007a5565b6200077c565b9050828152602081018484840111156200030d576200030c620008e4565b5b6200031a84828562000835565b509392505050565b6000620003396200033384620007a5565b6200077c565b905082815260208101848484011115620003585762000357620008e4565b5b6200036584828562000844565b509392505050565b6000813590506200037e8162000904565b92915050565b600082601f8301126200039c576200039b620008df565b5b8135620003ae848260208601620002d7565b91505092915050565b600082601f830112620003cf57620003ce620008df565b5b8151620003e184826020860162000322565b91505092915050565b600081359050620003fb816200091e565b92915050565b60008151905062000412816200091e565b92915050565b600060208284031215620004315762000430620008ee565b5b600082015167ffffffffffffffff811115620004525762000451620008e9565b5b6200046084828501620003b7565b91505092915050565b60008060408385031215620004835762000482620008ee565b5b600083013567ffffffffffffffff811115620004a457620004a3620008e9565b5b620004b28582860162000384565b9250506020620004c5858286016200036d565b9150509250929050565b600080600060608486031215620004eb57620004ea620008ee565b5b600084013567ffffffffffffffff8111156200050c576200050b620008e9565b5b6200051a8682870162000384565b935050602084013567ffffffffffffffff8111156200053e576200053d620008e9565b5b6200054c8682870162000384565b925050604084013567ffffffffffffffff81111562000570576200056f620008e9565b5b6200057e8682870162000384565b9150509250925092565b600060208284031215620005a157620005a0620008ee565b5b6000620005b18482850162000401565b91505092915050565b60008060408385031215620005d457620005d3620008ee565b5b6000620005e485828601620003ea565b9250506020620005f7858286016200036d565b9150509250929050565b6200060c81620007f7565b82525050565b60006200061f82620007db565b6200062b8185620007e6565b93506200063d81856020860162000844565b6200064881620008f3565b840191505092915050565b6200065e816200082b565b82525050565b60006020820190506200067b600083018462000601565b92915050565b600060208201905081810360008301526200069d818462000612565b905092915050565b60006040820190508181036000830152620006c1818562000612565b9050620006d2602083018462000601565b9392505050565b60006040820190508181036000830152620006f5818562000612565b905081810360208301526200070b818462000612565b90509392505050565b6000606082019050818103600083015262000730818662000612565b9050818103602083015262000746818562000612565b905062000757604083018462000601565b949350505050565b600060208201905062000776600083018462000653565b92915050565b6000620007886200079b565b90506200079682826200087a565b919050565b6000604051905090565b600067ffffffffffffffff821115620007c357620007c2620008b0565b5b620007ce82620008f3565b9050602081019050919050565b600081519050919050565b600082825260208201905092915050565b600062000804826200080b565b9050919050565b600073ffffffffffffffffffffffffffffffffffffffff82169050919050565b6000819050919050565b82818337600083830152505050565b60005b838110156200086457808201518184015260208101905062000847565b8381111562000874576000848401525b50505050565b6200088582620008f3565b810181811067ffffffffffffffff82111715620008a757620008a6620008b0565b5b80604052505050565b7f4e487b7100000000000000000000000000000000000000000000000000000000600052604160045260246000fd5b600080fd5b600080fd5b600080fd5b600080fd5b6000601f19601f8301169050919050565b6200090f81620007f7565b81146200091b57600080fd5b50565b62000929816200082b565b81146200093557600080fd5b5056fe608060405260006007553480156200001657600080fd5b50604051620032f0380380620032f083398181016040528101906200003c9190620001a8565b81818160009080519060200190620000569291906200007a565b5080600190805190602001906200006f9291906200007a565b5050505050620003b1565b8280546200008890620002c2565b90600052602060002090601f016020900481019282620000ac5760008555620000f8565b82601f10620000c757805160ff1916838001178555620000f8565b82800160010185558215620000f8579182015b82811115620000f7578251825591602001919060010190620000da565b5b5090506200010791906200010b565b5090565b5b80821115620001265760008160009055506001016200010c565b5090565b6000620001416200013b8462000256565b6200022d565b90508281526020810184848401111562000160576200015f62000391565b5b6200016d8482856200028c565b509392505050565b600082601f8301126200018d576200018c6200038c565b5b81516200019f8482602086016200012a565b91505092915050565b60008060408385031215620001c257620001c16200039b565b5b600083015167ffffffffffffffff811115620001e357620001e262000396565b5b620001f18582860162000175565b925050602083015167ffffffffffffffff81111562000215576200021462000396565b5b620002238582860162000175565b9150509250929050565b6000620002396200024c565b9050620002478282620002f8565b919050565b6000604051905090565b600067ffffffffffffffff8211156200027457620002736200035d565b5b6200027f82620003a0565b9050602081019050919050565b60005b83811015620002ac5780820151818401526020810190506200028f565b83811115620002bc576000848401525b50505050565b60006002820490506001821680620002db57607f821691505b60208210811415620002f257620002f16200032e565b5b50919050565b6200030382620003a0565b810181811067ffffffffffffffff821117156200032557620003246200035d565b5b80604052505050565b7f4e487b7100000000000000000000000000000000000000000000000000000000600052602260045260246000fd5b7f4e487b7100000000000000000000000000000000000000000000000000000000600052604160045260246000fd5b600080fd5b600080fd5b600080fd5b600080fd5b6000601f19601f8301169050919050565b612f2f80620003c16000396000f3fe608060405234801561001057600080fd5b50600436106101005760003560e01c80636352211e11610097578063a22cb46511610066578063a22cb465146102e5578063b88d4fde14610301578063c87b56dd1461031d578063e985e9c51461034d57610100565b80636352211e1461023757806370a082311461026757806372d996751461029757806395d89b41146102c757610100565b80631957b1b5116100d35780631957b1b51461019f5780631a5dc99d146101cf57806323b872dd146101ff57806342842e0e1461021b57610100565b806301ffc9a71461010557806306fdde0314610135578063081812fc14610153578063095ea7b314610183575b600080fd5b61011f600480360381019061011a9190611db7565b61037d565b60405161012c9190612355565b60405180910390f35b61013d61045f565b60405161014a9190612370565b60405180910390f35b61016d60048036038101906101689190611e6d565b6104f1565b60405161017a91906122cc565b60405180910390f35b61019d60048036038101906101989190611d77565b610576565b005b6101b960048036038101906101b49190611bf4565b61068e565b6040516101c69190612333565b60405180910390f35b6101e960048036038101906101e49190611e11565b6107a0565b6040516101f69190612592565b60405180910390f35b61021960048036038101906102149190611c61565b6107db565b005b61023560048036038101906102309190611c61565b61083b565b005b610251600480360381019061024c9190611e6d565b61085b565b60405161025e91906122cc565b60405180910390f35b610281600480360381019061027c9190611bf4565b61090d565b60405161028e9190612592565b60405180910390f35b6102b160048036038101906102ac9190611e6d565b6109c5565b6040516102be9190612370565b60405180910390f35b6102cf6109dd565b6040516102dc9190612370565b60405180910390f35b6102ff60048036038101906102fa9190611d37565b610a6f565b005b61031b60048036038101906103169190611cb4565b610bf0565b005b61033760048036038101906103329190611e6d565b610c52565b6040516103449190612370565b60405180910390f35b61036760048036038101906103629190611c21565b610da4565b6040516103749190612355565b60405180910390f35b60007f80ac58cd000000000000000000000000000000000000000000000000000000007bffffffffffffffffffffffffffffffffffffffffffffffffffffffff1916827bffffffffffffffffffffffffffffffffffffffffffffffffffffffff1916148061044857507f5b5e139f000000000000000000000000000000000000000000000000000000007bffffffffffffffffffffffffffffffffffffffffffffffffffffffff1916827bffffffffffffffffffffffffffffffffffffffffffffffffffffffff1916145b80610458575061045782610e38565b5b9050919050565b60606000805461046e90612832565b80601f016020809104026020016040519081016040528092919081815260200182805461049a90612832565b80156104e75780601f106104bc576101008083540402835291602001916104e7565b820191906000526020600020905b8154815290600101906020018083116104ca57829003601f168201915b5050505050905090565b60006104fc82610ea2565b61053b576040517f08c379a0000000000000000000000000000000000000000000000000000000008152600401610532906124f2565b60405180910390fd5b6004600083815260200190815260200160002060009054906101000a900473ffffffffffffffffffffffffffffffffffffffff169050919050565b60006105818261085b565b90508073ffffffffffffffffffffffffffffffffffffffff168373ffffffffffffffffffffffffffffffffffffffff1614156105f2576040517f08c379a00000000000000000000000000000000000000000000000000000000081526004016105e990612552565b60405180910390fd5b8073ffffffffffffffffffffffffffffffffffffffff16610611610f0e565b73ffffffffffffffffffffffffffffffffffffffff161480610640575061063f8161063a610f0e565b610da4565b5b61067f576040517f08c379a000000000000000000000000000000000000000000000000000000000815260040161067690612432565b60405180910390fd5b6106898383610f16565b505050565b6060600061069b8361090d565b905060008167ffffffffffffffff8111156106b9576106b86129cb565b5b6040519080825280602002602001820160405280156106f257816020015b6106df6119ee565b8152602001906001900390816106d75790505b50905060005b6007548110156107955761070a6119ee565b8573ffffffffffffffffffffffffffffffffffffffff1661072a8361085b565b73ffffffffffffffffffffffffffffffffffffffff161415610781578181600001818152505061075982610c52565b8160200181905250808383815181106107755761077461299c565b5b60200260200101819052505b50808061078d90612895565b9150506106f8565b508092505050919050565b60008060075490506107b28382610fcf565b6107bc8185610fed565b60016007546107cb91906126c1565b6007819055508091505092915050565b6107ec6107e6610f0e565b82611061565b61082b576040517f08c379a000000000000000000000000000000000000000000000000000000000815260040161082290612572565b60405180910390fd5b61083683838361113f565b505050565b61085683838360405180602001604052806000815250610bf0565b505050565b6000806002600084815260200190815260200160002060009054906101000a900473ffffffffffffffffffffffffffffffffffffffff169050600073ffffffffffffffffffffffffffffffffffffffff168173ffffffffffffffffffffffffffffffffffffffff161415610904576040517f08c379a00000000000000000000000000000000000000000000000000000000081526004016108fb90612472565b60405180910390fd5b80915050919050565b60008073ffffffffffffffffffffffffffffffffffffffff168273ffffffffffffffffffffffffffffffffffffffff16141561097e576040517f08c379a000000000000000000000000000000000000000000000000000000000815260040161097590612452565b60405180910390fd5b600360008373ffffffffffffffffffffffffffffffffffffffff1673ffffffffffffffffffffffffffffffffffffffff168152602001908152602001600020549050919050565b606060006109d283610c52565b905080915050919050565b6060600180546109ec90612832565b80601f0160208091040260200160405190810160405280929190818152602001828054610a1890612832565b8015610a655780601f10610a3a57610100808354040283529160200191610a65565b820191906000526020600020905b815481529060010190602001808311610a4857829003601f168201915b5050505050905090565b610a77610f0e565b73ffffffffffffffffffffffffffffffffffffffff168273ffffffffffffffffffffffffffffffffffffffff161415610ae5576040517f08c379a0000000000000000000000000000000000000000000000000000000008152600401610adc906123f2565b60405180910390fd5b8060056000610af2610f0e565b73ffffffffffffffffffffffffffffffffffffffff1673ffffffffffffffffffffffffffffffffffffffff16815260200190815260200160002060008473ffffffffffffffffffffffffffffffffffffffff1673ffffffffffffffffffffffffffffffffffffffff16815260200190815260200160002060006101000a81548160ff0219169083151502179055508173ffffffffffffffffffffffffffffffffffffffff16610b9f610f0e565b73ffffffffffffffffffffffffffffffffffffffff167f17307eab39ab6107e8899845ad3d59bd9653f200f220920489ca2b5937696c3183604051610be49190612355565b60405180910390a35050565b610c01610bfb610f0e565b83611061565b610c40576040517f08c379a0000000000000000000000000000000000000000000000000000000008152600401610c3790612572565b60405180910390fd5b610c4c8484848461139b565b50505050565b6060610c5d82610ea2565b610c9c576040517f08c379a0000000000000000000000000000000000000000000000000000000008152600401610c93906124d2565b60405180910390fd5b6000600660008481526020019081526020016000208054610cbc90612832565b80601f0160208091040260200160405190810160405280929190818152602001828054610ce890612832565b8015610d355780601f10610d0a57610100808354040283529160200191610d35565b820191906000526020600020905b815481529060010190602001808311610d1857829003601f168201915b505050505090506000610d466113f7565b9050600081511415610d5c578192505050610d9f565b600082511115610d91578082604051602001610d799291906122a8565b60405160208183030381529060405292505050610d9f565b610d9a8461140e565b925050505b919050565b6000600560008473ffffffffffffffffffffffffffffffffffffffff1673ffffffffffffffffffffffffffffffffffffffff16815260200190815260200160002060008373ffffffffffffffffffffffffffffffffffffffff1673ffffffffffffffffffffffffffffffffffffffff16815260200190815260200160002060009054906101000a900460ff16905092915050565b60007f01ffc9a7000000000000000000000000000000000000000000000000000000007bffffffffffffffffffffffffffffffffffffffffffffffffffffffff1916827bffffffffffffffffffffffffffffffffffffffffffffffffffffffff1916149050919050565b60008073ffffffffffffffffffffffffffffffffffffffff166002600084815260200190815260200160002060009054906101000a900473ffffffffffffffffffffffffffffffffffffffff1673ffffffffffffffffffffffffffffffffffffffff1614159050919050565b600033905090565b816004600083815260200190815260200160002060006101000a81548173ffffffffffffffffffffffffffffffffffffffff021916908373ffffffffffffffffffffffffffffffffffffffff160217905550808273ffffffffffffffffffffffffffffffffffffffff16610f898361085b565b73ffffffffffffffffffffffffffffffffffffffff167f8c5be1e5ebec7d5bd14f71427d1e84f3dd0314c0f7b2291e5b200ac8c7c3b92560405160405180910390a45050565b610fe98282604051806020016040528060008152506114b5565b5050565b610ff682610ea2565b611035576040517f08c379a000000000000000000000000000000000000000000000000000000000815260040161102c90612492565b60405180910390fd5b8060066000848152602001908152602001600020908051906020019061105c929190611a08565b505050565b600061106c82610ea2565b6110ab576040517f08c379a00000000000000000000000000000000000000000000000000000000081526004016110a290612412565b60405180910390fd5b60006110b68361085b565b90508073ffffffffffffffffffffffffffffffffffffffff168473ffffffffffffffffffffffffffffffffffffffff16148061112557508373ffffffffffffffffffffffffffffffffffffffff1661110d846104f1565b73ffffffffffffffffffffffffffffffffffffffff16145b8061113657506111358185610da4565b5b91505092915050565b8273ffffffffffffffffffffffffffffffffffffffff1661115f8261085b565b73ffffffffffffffffffffffffffffffffffffffff16146111b5576040517f08c379a00000000000000000000000000000000000000000000000000000000081526004016111ac90612512565b60405180910390fd5b600073ffffffffffffffffffffffffffffffffffffffff168273ffffffffffffffffffffffffffffffffffffffff161415611225576040517f08c379a000000000000000000000000000000000000000000000000000000000815260040161121c906123d2565b60405180910390fd5b611230838383611510565b61123b600082610f16565b6001600360008573ffffffffffffffffffffffffffffffffffffffff1673ffffffffffffffffffffffffffffffffffffffff168152602001908152602001600020600082825461128b9190612748565b925050819055506001600360008473ffffffffffffffffffffffffffffffffffffffff1673ffffffffffffffffffffffffffffffffffffffff16815260200190815260200160002060008282546112e291906126c1565b92505081905550816002600083815260200190815260200160002060006101000a81548173ffffffffffffffffffffffffffffffffffffffff021916908373ffffffffffffffffffffffffffffffffffffffff160217905550808273ffffffffffffffffffffffffffffffffffffffff168473ffffffffffffffffffffffffffffffffffffffff167fddf252ad1be2c89b69c2b068fc378daa952ba7f163c4a11628f55a4df523b3ef60405160405180910390a4505050565b6113a684848461113f565b6113b284848484611515565b6113f1576040517f08c379a00000000000000000000000000000000000000000000000000000000081526004016113e890612392565b60405180910390fd5b50505050565b606060405180602001604052806000815250905090565b606061141982610ea2565b611458576040517f08c379a000000000000000000000000000000000000000000000000000000000815260040161144f90612532565b60405180910390fd5b60006114626113f7565b9050600081511161148257604051806020016040528060008152506114ad565b8061148c846116ac565b60405160200161149d9291906122a8565b6040516020818303038152906040525b915050919050565b6114bf838361180d565b6114cc6000848484611515565b61150b576040517f08c379a000000000000000000000000000000000000000000000000000000000815260040161150290612392565b60405180910390fd5b505050565b505050565b60006115368473ffffffffffffffffffffffffffffffffffffffff166119db565b1561169f578373ffffffffffffffffffffffffffffffffffffffff1663150b7a0261155f610f0e565b8786866040518563ffffffff1660e01b815260040161158194939291906122e7565b602060405180830381600087803b15801561159b57600080fd5b505af19250505080156115cc57506040513d601f19601f820116820180604052508101906115c99190611de4565b60015b61164f573d80600081146115fc576040519150601f19603f3d011682016040523d82523d6000602084013e611601565b606091505b50600081511415611647576040517f08c379a000000000000000000000000000000000000000000000000000000000815260040161163e90612392565b60405180910390fd5b805181602001fd5b63150b7a0260e01b7bffffffffffffffffffffffffffffffffffffffffffffffffffffffff1916817bffffffffffffffffffffffffffffffffffffffffffffffffffffffff1916149150506116a4565b600190505b949350505050565b606060008214156116f4576040518060400160405280600181526020017f30000000000000000000000000000000000000000000000000000000000000008152509050611808565b600082905060005b6000821461172657808061170f90612895565b915050600a8261171f9190612717565b91506116fc565b60008167ffffffffffffffff811115611742576117416129cb565b5b6040519080825280601f01601f1916602001820160405280156117745781602001600182028036833780820191505090505b5090505b600085146118015760018261178d9190612748565b9150600a8561179c91906128de565b60306117a891906126c1565b60f81b8183815181106117be576117bd61299c565b5b60200101907effffffffffffffffffffffffffffffffffffffffffffffffffffffffffffff1916908160001a905350600a856117fa9190612717565b9450611778565b8093505050505b919050565b600073ffffffffffffffffffffffffffffffffffffffff168273ffffffffffffffffffffffffffffffffffffffff16141561187d576040517f08c379a0000000000000000000000000000000000000000000000000000000008152600401611874906124b2565b60405180910390fd5b61188681610ea2565b156118c6576040517f08c379a00000000000000000000000000000000000000000000000000000000081526004016118bd906123b2565b60405180910390fd5b6118d260008383611510565b6001600360008473ffffffffffffffffffffffffffffffffffffffff1673ffffffffffffffffffffffffffffffffffffffff168152602001908152602001600020600082825461192291906126c1565b92505081905550816002600083815260200190815260200160002060006101000a81548173ffffffffffffffffffffffffffffffffffffffff021916908373ffffffffffffffffffffffffffffffffffffffff160217905550808273ffffffffffffffffffffffffffffffffffffffff16600073ffffffffffffffffffffffffffffffffffffffff167fddf252ad1be2c89b69c2b068fc378daa952ba7f163c4a11628f55a4df523b3ef60405160405180910390a45050565b600080823b905060008111915050919050565b604051806040016040528060008152602001606081525090565b828054611a1490612832565b90600052602060002090601f016020900481019282611a365760008555611a7d565b82601f10611a4f57805160ff1916838001178555611a7d565b82800160010185558215611a7d579182015b82811115611a7c578251825591602001919060010190611a61565b5b509050611a8a9190611a8e565b5090565b5b80821115611aa7576000816000905550600101611a8f565b5090565b6000611abe611ab9846125d2565b6125ad565b905082815260208101848484011115611ada57611ad96129ff565b5b611ae58482856127f0565b509392505050565b6000611b00611afb84612603565b6125ad565b905082815260208101848484011115611b1c57611b1b6129ff565b5b611b278482856127f0565b509392505050565b600081359050611b3e81612e9d565b92915050565b600081359050611b5381612eb4565b92915050565b600081359050611b6881612ecb565b92915050565b600081519050611b7d81612ecb565b92915050565b600082601f830112611b9857611b976129fa565b5b8135611ba8848260208601611aab565b91505092915050565b600082601f830112611bc657611bc56129fa565b5b8135611bd6848260208601611aed565b91505092915050565b600081359050611bee81612ee2565b92915050565b600060208284031215611c0a57611c09612a09565b5b6000611c1884828501611b2f565b91505092915050565b60008060408385031215611c3857611c37612a09565b5b6000611c4685828601611b2f565b9250506020611c5785828601611b2f565b9150509250929050565b600080600060608486031215611c7a57611c79612a09565b5b6000611c8886828701611b2f565b9350506020611c9986828701611b2f565b9250506040611caa86828701611bdf565b9150509250925092565b60008060008060808587031215611cce57611ccd612a09565b5b6000611cdc87828801611b2f565b9450506020611ced87828801611b2f565b9350506040611cfe87828801611bdf565b925050606085013567ffffffffffffffff811115611d1f57611d1e612a04565b5b611d2b87828801611b83565b91505092959194509250565b60008060408385031215611d4e57611d4d612a09565b5b6000611d5c85828601611b2f565b9250506020611d6d85828601611b44565b9150509250929050565b60008060408385031215611d8e57611d8d612a09565b5b6000611d9c85828601611b2f565b9250506020611dad85828601611bdf565b9150509250929050565b600060208284031215611dcd57611dcc612a09565b5b6000611ddb84828501611b59565b91505092915050565b600060208284031215611dfa57611df9612a09565b5b6000611e0884828501611b6e565b91505092915050565b60008060408385031215611e2857611e27612a09565b5b600083013567ffffffffffffffff811115611e4657611e45612a04565b5b611e5285828601611bb1565b9250506020611e6385828601611b2f565b9150509250929050565b600060208284031215611e8357611e82612a09565b5b6000611e9184828501611bdf565b91505092915050565b6000611ea6838361224d565b905092915050565b611eb78161277c565b82525050565b6000611ec882612644565b611ed28185612672565b935083602082028501611ee485612634565b8060005b85811015611f205784840389528151611f018582611e9a565b9450611f0c83612665565b925060208a01995050600181019050611ee8565b50829750879550505050505092915050565b611f3b8161278e565b82525050565b6000611f4c8261264f565b611f568185612683565b9350611f668185602086016127ff565b611f6f81612a0e565b840191505092915050565b6000611f858261265a565b611f8f8185612694565b9350611f9f8185602086016127ff565b611fa881612a0e565b840191505092915050565b6000611fbe8261265a565b611fc881856126a5565b9350611fd88185602086016127ff565b611fe181612a0e565b840191505092915050565b6000611ff78261265a565b61200181856126b6565b93506120118185602086016127ff565b80840191505092915050565b600061202a6032836126a5565b915061203582612a1f565b604082019050919050565b600061204d601c836126a5565b915061205882612a6e565b602082019050919050565b60006120706024836126a5565b915061207b82612a97565b604082019050919050565b60006120936019836126a5565b915061209e82612ae6565b602082019050919050565b60006120b6602c836126a5565b91506120c182612b0f565b604082019050919050565b60006120d96038836126a5565b91506120e482612b5e565b604082019050919050565b60006120fc602a836126a5565b915061210782612bad565b604082019050919050565b600061211f6029836126a5565b915061212a82612bfc565b604082019050919050565b6000612142602e836126a5565b915061214d82612c4b565b604082019050919050565b60006121656020836126a5565b915061217082612c9a565b602082019050919050565b60006121886031836126a5565b915061219382612cc3565b604082019050919050565b60006121ab602c836126a5565b91506121b682612d12565b604082019050919050565b60006121ce6029836126a5565b91506121d982612d61565b604082019050919050565b60006121f1602f836126a5565b91506121fc82612db0565b604082019050919050565b60006122146021836126a5565b915061221f82612dff565b604082019050919050565b60006122376031836126a5565b915061224282612e4e565b604082019050919050565b6000604083016000830151612265600086018261228a565b506020830151848203602086015261227d8282611f7a565b9150508091505092915050565b612293816127e6565b82525050565b6122a2816127e6565b82525050565b60006122b48285611fec565b91506122c08284611fec565b91508190509392505050565b60006020820190506122e16000830184611eae565b92915050565b60006080820190506122fc6000830187611eae565b6123096020830186611eae565b6123166040830185612299565b81810360608301526123288184611f41565b905095945050505050565b6000602082019050818103600083015261234d8184611ebd565b905092915050565b600060208201905061236a6000830184611f32565b92915050565b6000602082019050818103600083015261238a8184611fb3565b905092915050565b600060208201905081810360008301526123ab8161201d565b9050919050565b600060208201905081810360008301526123cb81612040565b9050919050565b600060208201905081810360008301526123eb81612063565b9050919050565b6000602082019050818103600083015261240b81612086565b9050919050565b6000602082019050818103600083015261242b816120a9565b9050919050565b6000602082019050818103600083015261244b816120cc565b9050919050565b6000602082019050818103600083015261246b816120ef565b9050919050565b6000602082019050818103600083015261248b81612112565b9050919050565b600060208201905081810360008301526124ab81612135565b9050919050565b600060208201905081810360008301526124cb81612158565b9050919050565b600060208201905081810360008301526124eb8161217b565b9050919050565b6000602082019050818103600083015261250b8161219e565b9050919050565b6000602082019050818103600083015261252b816121c1565b9050919050565b6000602082019050818103600083015261254b816121e4565b9050919050565b6000602082019050818103600083015261256b81612207565b9050919050565b6000602082019050818103600083015261258b8161222a565b9050919050565b60006020820190506125a76000830184612299565b92915050565b60006125b76125c8565b90506125c38282612864565b919050565b6000604051905090565b600067ffffffffffffffff8211156125ed576125ec6129cb565b5b6125f682612a0e565b9050602081019050919050565b600067ffffffffffffffff82111561261e5761261d6129cb565b5b61262782612a0e565b9050602081019050919050565b6000819050602082019050919050565b600081519050919050565b600081519050919050565b600081519050919050565b6000602082019050919050565b600082825260208201905092915050565b600082825260208201905092915050565b600082825260208201905092915050565b600082825260208201905092915050565b600081905092915050565b60006126cc826127e6565b91506126d7836127e6565b9250827fffffffffffffffffffffffffffffffffffffffffffffffffffffffffffffffff0382111561270c5761270b61290f565b5b828201905092915050565b6000612722826127e6565b915061272d836127e6565b92508261273d5761273c61293e565b5b828204905092915050565b6000612753826127e6565b915061275e836127e6565b9250828210156127715761277061290f565b5b828203905092915050565b6000612787826127c6565b9050919050565b60008115159050919050565b60007fffffffff0000000000000000000000000000000000000000000000000000000082169050919050565b600073ffffffffffffffffffffffffffffffffffffffff82169050919050565b6000819050919050565b82818337600083830152505050565b60005b8381101561281d578082015181840152602081019050612802565b8381111561282c576000848401525b50505050565b6000600282049050600182168061284a57607f821691505b6020821081141561285e5761285d61296d565b5b50919050565b61286d82612a0e565b810181811067ffffffffffffffff8211171561288c5761288b6129cb565b5b80604052505050565b60006128a0826127e6565b91507fffffffffffffffffffffffffffffffffffffffffffffffffffffffffffffffff8214156128d3576128d261290f565b5b600182019050919050565b60006128e9826127e6565b91506128f4836127e6565b9250826129045761290361293e565b5b828206905092915050565b7f4e487b7100000000000000000000000000000000000000000000000000000000600052601160045260246000fd5b7f4e487b7100000000000000000000000000000000000000000000000000000000600052601260045260246000fd5b7f4e487b7100000000000000000000000000000000000000000000000000000000600052602260045260246000fd5b7f4e487b7100000000000000000000000000000000000000000000000000000000600052603260045260246000fd5b7f4e487b7100000000000000000000000000000000000000000000000000000000600052604160045260246000fd5b600080fd5b600080fd5b600080fd5b600080fd5b6000601f19601f8301169050919050565b7f4552433732313a207472616e7366657220746f206e6f6e20455243373231526560008201527f63656976657220696d706c656d656e7465720000000000000000000000000000602082015250565b7f4552433732313a20746f6b656e20616c7265616479206d696e74656400000000600082015250565b7f4552433732313a207472616e7366657220746f20746865207a65726f2061646460008201527f7265737300000000000000000000000000000000000000000000000000000000602082015250565b7f4552433732313a20617070726f766520746f2063616c6c657200000000000000600082015250565b7f4552433732313a206f70657261746f7220717565727920666f72206e6f6e657860008201527f697374656e7420746f6b656e0000000000000000000000000000000000000000602082015250565b7f4552433732313a20617070726f76652063616c6c6572206973206e6f74206f7760008201527f6e6572206e6f7220617070726f76656420666f7220616c6c0000000000000000602082015250565b7f4552433732313a2062616c616e636520717565727920666f7220746865207a6560008201527f726f206164647265737300000000000000000000000000000000000000000000602082015250565b7f4552433732313a206f776e657220717565727920666f72206e6f6e657869737460008201527f656e7420746f6b656e0000000000000000000000000000000000000000000000602082015250565b7f45524337323155524953746f726167653a2055524920736574206f66206e6f6e60008201527f6578697374656e7420746f6b656e000000000000000000000000000000000000602082015250565b7f4552433732313a206d696e7420746f20746865207a65726f2061646472657373600082015250565b7f45524337323155524953746f726167653a2055524920717565727920666f722060008201527f6e6f6e6578697374656e7420746f6b656e000000000000000000000000000000602082015250565b7f4552433732313a20617070726f76656420717565727920666f72206e6f6e657860008201527f697374656e7420746f6b656e0000000000000000000000000000000000000000602082015250565b7f4552433732313a207472616e73666572206f6620746f6b656e2074686174206960008201527f73206e6f74206f776e0000000000000000000000000000000000000000000000602082015250565b7f4552433732314d657461646174613a2055524920717565727920666f72206e6f60008201527f6e6578697374656e7420746f6b656e0000000000000000000000000000000000602082015250565b7f4552433732313a20617070726f76616c20746f2063757272656e74206f776e6560008201527f7200000000000000000000000000000000000000000000000000000000000000602082015250565b7f4552433732313a207472616e736665722063616c6c6572206973206e6f74206f60008201527f776e6572206e6f7220617070726f766564000000000000000000000000000000602082015250565b612ea68161277c565b8114612eb157600080fd5b50565b612ebd8161278e565b8114612ec857600080fd5b50565b612ed48161279a565b8114612edf57600080fd5b50565b612eeb816127e6565b8114612ef657600080fd5b5056fea2646970667358221220d93105ac5129a6546fe7f55f926a53e12cef16f9cde1d5ae4c7c1a5a99d24cd864736f6c63430008070033a264697066735822122045175e186ae2d4f7cac4b9c9de92a80ee4057fc1cfaf6327d95297ba5bcef43064736f6c63430008070033",
  "immutableReferences": {},
  "source": "\nimport \"@openzeppelin/contracts/token/ERC721/extensions/ERC721URIStorage.sol\";\nimport \"./interfaces/INFMint.sol\";\nimport \"./NFMint.sol\";\n\ncontract Minter {\n\n        event NFTCreated (\n            string name,\n            string tokenURI,\n            address contractAddress\n        );\n     \n         \n      function mintNFT(string memory name_,string memory symbol_, string memory tokenURI_) public  returns(address) {\n           // mints a new nft contract\n           INFMint nft = new NFMint(name_, symbol_);\n           address nftAddress = address(nft);\n\n            // adds a collectible to the newly minted nft  contract\n           _addCollectibleToMintedNFT(tokenURI_, nftAddress, msg.sender);\n         \n           emit NFTCreated(name_ , tokenURI_, nftAddress);\n      }\n\n\n      function addCollectibleToMintedNFT(string memory tokenURI_, address  nftAddress_) public {\n            \n            _addCollectibleToMintedNFT(tokenURI_, nftAddress_, msg.sender);\n      }\n\n\n      function getCollectible(uint tokenId_, address nftAddress_) public view returns(string memory){\n\n            INFMint nft  = INFMint(nftAddress_);\n           string memory tokenURI =  nft.getCollectible(tokenId_);\n           return tokenURI;\n      }\n\n\n      function _addCollectibleToMintedNFT(string memory tokenURI_, address  nftAddress_, address owner_) private {\n             // initializes the contact instance\n             INFMint nft  = INFMint(nftAddress_);\n             // adds the collectible\n              nft.addCollectible(tokenURI_, owner_);\n\n            \n           \n\n      }\n\n\n\n}",
  "sourcePath": "/Users/onyejivictor/Documents/code/nftminter/contracts/Minter.sol",
  "compiler": {
    "name": "solc",
    "version": "0.8.7+commit.e28d00a7.Emscripten.clang"
  },
  "schemaVersion": "3.4.1",
  "updatedAt": "2021-08-31T14:59:05.046Z",
  "networkType": "ethereum",
  "devdoc": {
    "kind": "dev",
    "methods": {},
    "version": 1
  },
  "userdoc": {
    "kind": "user",
    "methods": {},
    "version": 1
  }
}